S0180000546F67676C65426C696E6B53706565642E73726563C9
S11300000C9434000C943E000C943E000C943E007E
S11300100C943E000C943E000C943E000C943E0064
S11300200C943E000C943E000C943E000C943E0054
S11300300C943E000C943E000C943E000C943E0044
S11300400C943E000C943E000C943E000C943E0034
S11300500C943E000C943E000C943E000C943E0024
S11300600C943E000C943E0011241FBECFEFD8E048
S1130070DEBFCDBF0E9440000C945B000C940000D6
S11300803898409A209A289A91E085B1892785B9B1
S1130090309B0AC02FE936E881E02150304080408F
S11300A0E1F700C00000F1CFE7EAF1E63197F1F79C
S10D00B000C00000EACFF894FFCF6F
S9030000FC
