:100000000C9434000C943E000C943E000C943E0082
:100010000C943E000C943E000C943E000C943E0068
:100020000C943E000C943E000C943E000C943E0058
:100030000C943E000C943E000C943E000C943E0048
:100040000C943E000C943E000C943E000C943E0038
:100050000C943E000C943E000C943E000C943E0028
:100060000C943E000C943E0011241FBECFEFD8E04C
:10007000DEBFCDBF0E9440000C946B000C940000CA
:100080003898409A209A219A229A20E041E050E044
:1000900090E001C0252F842F309902C0892FFCCF1A
:1000A000E3ECF9E03197F1F700C000008111F4CFE3
:1000B0002F5F20FF02C0289A01C0289821FF02C0AC
:1000C000299A01C0299822FF02C02A9A01C02A98C1
:0A00D000283001F3E0CFF894FFCFD1
:00000001FF
