:100000000C9434000C943E000C943E000C943E0082
:100010000C943E000C943E000C943E000C943E0068
:100020000C943E000C943E000C943E000C943E0058
:100030000C943E000C943E000C943E000C943E0048
:100040000C943E000C943E000C943E000C943E0038
:100050000C943E000C943E000C943E000C943E0028
:100060000C943E000C943E0011241FBECFEFD8E04C
:10007000DEBFCDBF0E9440000C9486000C940000AF
:10008000209A219A229A84B1876084B92FEF31E0B7
:1000900090E06FEF51E040E0911104C02F5F2330FA
:1000A00090F532C09F3F09F4362F930F21110DC0F8
:1000B000289A842F891708F015B876E07A95F1F719
:1000C00000C08F5F8F3FB1F7E7CF223069F4299AE4
:1000D000842F891708F015B876E07A95F1F700C0FB
:1000E0008F5F8F3FB1F7D8CF2130B1F62A9A842F96
:1000F000891708F015B876E07A95F1F700C08F5FA0
:100100008F3FB1F7C9CF242F352FCFCFF894FFCF32
:00000001FF
