:1000000033C0000041C000003FC000003DC0000000
:100010003BC0000039C0000037C0000035C0000000
:1000200033C0000031C000002FC000002DC0000010
:100030002BC0000029C000003CC0000049C00000E7
:1000400024C0000021C000001FC000001DC000002F
:100050001BC0000019C0000017C0000015C0000040
:1000600013C0000011C0000011241FBECFEFD8E064
:10007000DEBFCDBF21E0A0E0B1E001C01D92A23003
:10008000B207E1F734D064C0BBCF1F920F920FB616
:100090000F9211248F938FEF85B98091000187BD56
:1000A0008091010188BD8F910F900FBE0F901F901E
:1000B00018951F920F920FB60F9211248F9385B14E
:1000C000807F85B98F910F900FBE0F901F9018956C
:1000D0001F920F920FB60F9211248F9385B18F70DC
:1000E00085B98F910F900FBE0F901F9018958FEFCD
:1000F00084B985B5836085BD80916E0086608093EC
:100100006E0080916E00816080936E00789480E034
:100110008F3F71F0EDEEF2E03197F1F700C0000093
:1001200080930001982F9095909301018F5FF0CFFD
:100130008EEFEDEEF2E03197F1F700C00000809312
:100140000001982F909590930101815091F7E2CF93
:04015000F894FFCF51
:00000001FF
