S00F00004C4544466164652E73726563D0
S11300000C9434000C943E000C943E000C943E007E
S11300100C943E000C943E000C943E000C943E0064
S11300200C943E000C943E000C943E000C943E0054
S11300300C943E000C943E000C943E000C943E0044
S11300400C943E000C943E000C943E000C943E0034
S11300500C943E000C943E000C943E000C943E0024
S11300600C943E000C943E0011241FBECFEFD8E048
S1130070DEBFCDBF0E944D000C9460000C940000C4
S1130080289A90E0981708F015B826E02A95F1F719
S113009000C09F5F9F3FB1F70895209A209AC0E067
S11300A0D1E011E00FEF05C0CF3F19F4D02F01C00C
S11300B0D12FCD0F8C2F0E944000CC23C9F3F4CF55
S10700C0F894FFCFDE
S9030000FC
